:020000021000EC
:10C000000040002099F60100D5F60100D7F60100A6
:10C010000000000000000000000000000000000020
:10C02000000000000000000000000000D9F6010040
:10C030000000000000000000DBF60100DDF601005A
:10C04000DFF60100DFF6010001000200DFF601006B
:10C05000DFF6010000000000E1F60100DFF601005C
:10C06000DFF60100DFF6010029F90100DFF601002B
:10C07000DFF60100DFF60100DFF60100DFF6010068
:10C08000DFF60100A5FD0100DFF60100DFF601008B
:10C09000DFF601001DD501007DD20100DFF60100B1
:10C0A000DFF60100DFF601000000000000000000E4
:10C0B0000000000000000000000000000000000080
:10C0C00008B5044B024A410CC00305F04BFE08BD05
:10C0D000E80300000000000008B50B4B1B78002BA4
:10C0E00001D103F0A5FE03F03FFE064B044A05F024
:10C0F00059FE4904C00B084308BDC046C046C046AF
:10C1000040420F0000000000DA300020C046C04668
:10C110002F4B70B51B78061C002B01D103F088FE55
:10C1200003F022FE254B244A05F03CFE4B04C00BD5
:10C13000002400251843CD0B0023321CA4185D41B8
:10C1400080231B06984205D9002E03DB1C4A1D4B99
:10C15000A4185D41610CEB030B43E2031A481B4931
:10C1600080185941154B144A05F0FCFD194D041C6B
:10C170002B78194E002B02D0336898421BD009F05F
:10C1800093F9201A022802DC09F08EF9841C21029E
:10C19000124BA822D200090A99502A783460002A4A
:10C1A00009D101222A70D2218022520289005A50DC
:10C1B000C12189005A5070BD40420F0000000000AC
:10C1C00000000000010000003F420F0000000000DE
:10C1D000DA300020DB300020282E00200010014043
:10C1E00010B5064C2378002B07D1054B002B02D04D
:10C1F000044800E000BF0123237010BD8C280020FC
:10C20000000000001C64020008B5084B002B03D09E
:10C210000748084900E000BF07480368002B03D027
:10C22000064B002B00D0984708BDC0460000000018
:10C230001C640200902800208C28002000000000D0
:10C24000164B002B00D1144B9D46402292029A1AA5
:10C25000924600218B460F461348144A121A09F0E1
:10C2600054FA0F4B002B00D098470E4B002B00D0F8
:10C2700098470020002104000D000D48002802D03E
:10C280000C4800E000BF06F01FFF2000290008F066
:10C29000B9FD08F07BFDC04600000800004000200A
:10C2A00000000000000000008C280020EC3000207E
:10C2B0000000000000000000054B10B50360C369DA
:10C2C000041C9B6820309847024B201C236010BD43
:10C2D000085B0200F05A0200014B03607047C04641
:10C2E000F05A0200014B03607047C046F05A02004A
:10C2F00010B5034B041C036009F0E2F9201C10BDCB
:10C30000F05A020010B5034B041C036009F0D8F981
:10C31000201C10BDF05A0200FE2108B5890508480E
:10C3200003F0C2FB074B00201870074B187000F099
:10C3300093F900F0B3F903689B69984708BDC046BC
:10C3400045300020483000204930002038B5C3690E
:10C35000054D041CAB4202D09B6820309847E56134
:10C36000201C07F0FEFB38BDD05D020070B5041C38
:10C37000FFF7B2FE1A4B1B4E18603378002B0ED11C
:10C38000194D2A78002A0AD1617AE06807F017FC73
:10C39000002824D02378337063782B701FE0227834
:10C3A0009A421CD1104B62781B789A4217D1617A5D
:10C3B000E06807F01BFC0D4D287000280FD00C4CD6
:10C3C000FA218905201C03F06FFB287806F05AFA41
:10C3D000084905F057FD011C201C03F0F7FB70BD58
:10C3E000A828002048300020493000204730002095
:10C3F000453000200000704210B5FE2188B015487D
:10C40000890503F051FB144C00212368986809F05A
:10C4100084F923680021D86809F07FF92368002196
:10C42000586809F07AF9002000F016F90023079304
:10C430000A4B6A46069306AB12CB12C20849049A0D
:10C44000059B07F0E4FB0748074902F02DFF08B001
:10C4500010BDC0464530002064280020433B020048
:10C46000753B0200AC280020C5C5010008B4FFB52B
:10C47000171CC369144A051C041C0191099E203530
:10C48000934202D09B68281C9847019B311CE361B2
:10C490007368201C63600C310C30102209F02CF9F9
:10C4A000B668E369A660002F03D05B68281C391CBE
:10C4B00003E00AA91B680391281C9847201C04B0BC
:10C4C000F0BC08BC01B01847D05D020070B5102662
:10C4D00098B0051C0C1C321C04A8002109F015F9A9
:10C4E0000F4B0294019300240E4B211C321C0BA80D
:10C4F000039309940A9409F008F90B4B0B49221C89
:10C50000089308A801AB0F91FFF7B0FF281C08A9FA
:10C5100002F0B0FF08A8FFF7CFFE281C18B070BDCE
:10C52000205B02002F3B0200085B0200D05D02008E
:10C5300000B597B0FFF7D0FD074B1B68C01A074B3B
:10C54000984206D901A80649FFF7C0FF01A808F0E4
:10C550007FFE17B000BDC046A828002010270000AD
:10C5600019C3010010B5002096B000F075F800F076
:10C5700095F80368011C2C31DB6C041C98470028DB
:10C5800008D1231C5C3301221A700A4B083423673C
:10C59000094BE36701A80949FFF798FF0848FFF72F
:10C5A0008FFD011C01A808F000FD01A808F050FE55
:10C5B00016B010BD6DC30100353B020031C501004E
:10C5C0001027000010B50A4C96B0237801A8002B64
:10C5D00001D1084900E00849FFF778FF01A808F0F9
:10C5E00037FE237801225340237016B010BDC04699
:10C5F0004430002065C5010019C3010010B507488B
:10C60000152103F0F3FA064C1121201C02F008FE5C
:10C61000201C0449044A09F04CF810BD45300020A4
:10C62000AC280020FDF101000028002038B50023CF
:10C63000041C0160436099420AD1064D2B68002B0F
:10C6400002D100F0EFF8286022689300ED58656091
:10C65000201C38BD1029002070B500280DD10C4CCD
:10C660002668002E07D1082005F0D4FA311C051CDD
:10C67000FFF7DCFF2560206808E0064A0123116807
:10C680000548194002D103604160136070BDC04687
:10C69000042900201429002008290020436810B52F
:10C6A000041C002B02D1044808F001FB60680368F9
:10C6B0001B69984710BDC0461C610200F7B5FA26F9
:10C6C0000093B60008AB041C1B78301C4843144987
:10C6D000171C019305F0BCFA85B2301C2580784305
:10C6E0000F4905F0B5FA009B80B2A380019B6080E2
:10C6F000A371032D01D80423238022888023DB012A
:10C700009A4200D92380032801D8042262806288DB
:10C710009A4202D98023DB016380201CFEBDC04603
:10C720007102000010B5041CFA208000484307493C
:10C7300005F08EFA82B2101F054980B203238842A9
:10C7400001D822800023181C10BDC04671020000D1
:10C75000FB3F000010B5041CFA2080004843074945
:10C7600005F076FA82B2101F054980B20323884291
:10C7700001D862800023181C10BDC0467102000061
:10C78000FB3F0000014B083303607047305B020041
:10C7900010B5044B041C0833036008F091FF201C03
:10C7A00010BDC046305B02007FB50379002B0FD06F
:10C7B000164E174C3378201C002B25D102AD281CB7
:10C7C00007F046FA002819D16B88592B16D101E0E1
:10C7D000104819E02B78AA88D91F012904D80092A3
:10C7E000201C20210C4A03E000920C4A201C20212E
:10C7F00006F046FD01233370201C05E0201C08498B
:10C80000202208F0CFFFF7E704B070BD4A300020C7
:10C810004B3000203F610200596102007661020046
:10C820009B610200004870471829002008B5064B9C
:10C8300006480833036006490023064A03718360F3
:10C8400008F037FF08BDC046305B02001829002001
:10C8500085C701000028002000487047FFFF000046
:10C86000F0B50D78061C87B00C1C0220012D25D0D8
:10C870004B88032D06D1A03B114A9BB2934205D9A8
:10C8800003201BE0203B9BB20E4AF7E7A7880E4B24
:10C890009F42F5D818226846002108F036FF6388C9
:10C8A0006A46684615701382578207F03AFA0028E4
:10C8B000E6D15836337801221343337007B0F0BD08
:10C8C000603F0000E03F0000FF3F000070B588B00F
:10C8D000051C1E1C68466B461A70013006220C9C13
:10C8E00008F00AFF02AA002E07D03388138073884D
:10C8F0005380B3889380F38806E032231380642347
:10C900005380962396809B0004A90878D380022642
:10C9100000234B60B0430123002C0AD0A579984333
:10C920001D40238828430B81638808704B81A388AE
:10C930000BE02C1C3234247898431C40AB8D2043F0
:10C940000B81EB8D08704B812B8E68468B8107F035
:10C9500002FA031C0020834215D0082B12D005D800
:10C960000720042B0FD083420AD107E00520112BAA
:10C9700009D0064A934201D0102B01D1042002E0D5
:10C980000B2000E0062008B070BDC0460232000057
:10C99000024B0B60092313607047C046A36102007D
:10C9A000014B03607047C046F05A020010B5034BBC
:10C9B000041C036008F084FE201C10BDF05A020025
:10C9C000064B10B50360041C02F004FB044B201C52
:10C9D000A36102F0E7FA201C10BDC046805D020092
:10C9E000F05A020010B5034B041C0360FFF7E8FF88
:10C9F000201C10BDC05D0200012008B5054A011CC5
:10CA000000F09CFD421E904140420B230340181C45
:10CA100008BDC0460DCC010038B5074B041C0360AF
:10CA20004068002804D0056908F04AFE281CF8E791
:10CA30006060201C38BDC046785B020038B5074BEB
:10CA4000041C03604068002804D0056908F038FE23
:10CA5000281CF8E76060201C38BDC046885B0200D7
:10CA6000094B10B50833041C0360A030FFF7BAFF70
:10CA7000064B201C23609430FFF7E0FF201C8C3015
:10CA8000FFF7CAFF201C10BD105C0200985B02007B
:10CA900010B5064B0021041C036041608160102228
:10CAA0000C3008F032FE201C10BDC046F05A0200C7
:10CAB000F7B5484A01231168474C0B4000D087E086
:10CAC000464A23712260A022E28023811F26A31BF5
:10CAD00029330022013E1A709642F8D1231C2933D3
:10CAE0001E70802180239B00201CC90163852C308F
:10CAF00000960A1C331CFFF7E1FDA319343300250F
:10CB000001361D701F2EF8D1231C80225433920051
:10CB10001A80231C58331A7801218A4302218A4340
:10CB20001A70231C5C331D70221C2D4B8832236726
:10CB30001560231C2B4A0833DA672B4A231C8C33DD
:10CB40001A60231C90331D60284A231C94331A60FA
:10CB5000231C9833201C321C1D60291C2566656629
:10CB60006567A5670A3008F0D0FD231C2933201C17
:10CB7000321C291C1D70343008F0C7FD231C5333B0
:10CB80001D70261C1A4BA0360833301C2360271C4E
:10CB900002F0F2F9174BB8373360381CFFF778FF13
:10CBA000154B164A3B60231CBC331D60231CC0334D
:10CBB0001A60134B01223360231CD43352421A8073
:10CBC000044B01221A60201C0E490F4A08F071FD27
:10CBD000201CFEBDFC29002024290020985B0200B7
:10CBE000433F0200353B0200785B0200885B020095
:10CBF000105C0200805D0200205B02002F3B0200FF
:10CC0000C05D020061CA01000028002010B5041CAC
:10CC1000FFF74EFF0749031C021C9C33C432186205
:10CC20001C70116000215160034AA0305A6208F064
:10CC3000C2F810BD9DCC01007F3F020008B4FFB5D3
:10CC4000171CC369144A051C041C0191099E203558
:10CC5000934202D09B68281C9847019B311CE361DA
:10CC60007368201C63600C310C30102208F044FD06
:10CC7000B668E369A660002F03D05B68281C391CE6
:10CC800003E00AA91B680391281C9847201C04B0E4
:10CC9000F0BC08BC01B01847D05D020030B5AFB0A1
:10CCA000051C02A8FFF7F4FE124B002402932B1C74
:10CCB00064330393104B09A80593104B0694049317
:10CCC000FFF7E6FE0E4B9C3509930E4B221C10938A
:10CCD000009502AB09A80C49FFF7B0FF09A919A8F4
:10CCE00002F0C8FB19A808F0B3FA09A8FFF7E4FAA4
:10CCF0002FB030BD005C02002D3F0200693F0200F2
:10CD0000085B0200D05D0200DC5D020073B5151CFB
:10CD100002680E1C009394682B1C321C0149A0472A
:10CD200076BDC046FFFF000073B5151C06AA0E1C99
:10CD3000117802680093019114692B1C321C01497F
:10CD4000A04776BDFFFF000038B5074B041C036009
:10CD50004068002804D0056908F0B2FC281CF8E7F8
:10CD60006060201C38BDC046805C020038B5074BAF
:10CD7000041C03604068002804D0056908F0A0FC8A
:10CD8000281CF8E76060201C38BDC046905C02009B
:10CD900038B5074B041C03604068002804D00569BF
:10CDA00008F08EFC281CF8E76060201C38BDC046E7
:10CDB000A05C0200084B10B5041C03601830FFF79C
:10CDC000E7FF201C1030FFF7D1FF201C0830FFF7D1
:10CDD000BBFF201C10BDC046B05C020070B50D1C2E
:10CDE00086B000210091161C0AA90BAA09881278A6
:10CDF0006C4621800193002A01D141790EE0281C64
:10CE0000311C6A4607F02FF900283BD14DE0D400D1
:10CE100004197C342488B44203D001328A42F6D308
:10CE200032E00A3292008018426830210132D27F0B
:10CE30000A4229D0102102AC0A4051424A41E36023
:10CE40000AAB0132A3601A4BA27000222680A28096
:10CE50009D4204D1FFF72CFE07F000F9051C281CA9
:10CE6000211C07F004F983B2181E1ED0112B1BD011
:10CE700013DC082B0FD0281C311C6A4607F0F3F88E
:10CE8000002811D0032010E0281C311C6A4607F04E
:10CE9000EAF80028F6D1062007E0064B984203D0B6
:10CEA000054B9842F7D0E6E7052006B070BDC046B6
:10CEB000FFFF00000330000001340000F0B5051C46
:10CEC00097B0081C0C9101F0A1FD6C463E34109007
:10CED00010A90120221C07F0C4F8002801D003206B
:10CEE000C8E023880C990B908B830C9A0B98137DC8
:10CEF00083424FD96B79132B01D90720BAE00C9AE2
:10CF00000B98926983009C586169002947D1238B53
:10CF1000002B44D1631CDB7F022B40D135E06069DC
:10CF2000631CDA7FA31CDB7F0090218B0D9801919D
:10CF3000618B049002910A9900200391211C2931F0
:10CF400009780591211C2A310978069169790F31F8
:10CF5000C90069180431079110A907F061FB002886
:10CF6000BDD16B79071C1A1C0A3292000F33AA1824
:10CF7000DB005460EB189B88E3836B7901336B71A2
:10CF8000231C28331B78BB4230D80B9B0133DBB208
:10CF90000B93AAE72B79002001332B716AE0201C48
:10CFA00001F034FD002610900D960A96231C2833BC
:10CFB0001B78B342B3D9626AB3009F58002311AA09
:10CFC000137011A9CA18002001335070102BF8D12A
:10CFD000294B381C4B8207F0CFF8002803D07B691F
:10CFE000BF8B0A930D970136F6B2DFE79E235B00F5
:10CFF000EB5C072B00D980E7616ABB005E5811AA81
:10D000000023137011A9CA18002001335070102B8F
:10D01000F8D1194B301C4B8207F0AEF80A9000286B
:10D0200025D1301C01F0F2FC718B10909E20400045
:10D030007269338B0091295C0A989C314900691808
:10D040000631019110A907F099FB002800D046E7AE
:10D050009E2149006A5C531CDBB246326B5492003D
:10D060009C33AA185B005660EB18DB88F3837B1CAB
:10D07000DFB285E717B0F0BD0129000070B52A4D79
:10D0800001232A68294C13404CD1294A2371A260FC
:10D09000284A63712261284AE360A261274A6361DA
:10D0A0000832E36123626362A3622260E218002611
:10D0B0000433D662502BF9D1A0197C30002108220C
:10D0C000083608F022FBA02EF6D1221C0023FC32E9
:10D0D000136253629362D362136353639363D363A4
:10D0E0009E225200A3549F225200A352A02252001B
:10D0F000A352A1225200A352A2225200A352A32261
:10D100005200A352A4225200A352A5225200A352BD
:10D11000A6225200A352201C01230949094A2B6070
:10D1200008F0C7FA201C70BD002A0020042A002045
:10D13000805C0200905C0200A05C0200D05C0200F7
:10D14000B5CD010000280020F0B5254B85B01B7837
:10D15000002B42D0234E244F3268544254413A6847
:10D16000E4B255425541EDB2002C34D103A807F08A
:10D170005AF905280AD0002804D0211C221C00F0EE
:10D1800087F904E003983368984700E00124002DF4
:10D190001ED1164B03A91B880B80154B1B68181C4E
:10D1A000019307F046F9051E052D0BD0002805D088
:10D1B00000210A1C00F06CF9002504E001983A688F
:10D1C000904700E00125002CCED0002DCCD004E00B
:10D1D000002C02D1C8E7002DDBD005B0F0BDC04661
:10D1E0006B300020582B00205C2B00202C300020BE
:10D1F000542B002038B5041C0720002913D08D07BC
:10D2000011D1094801600949201C0A80084A0949CE
:10D21000136007F00AF9002805D1074B01221620F8
:10D220001A7007F0FEF838BD542B00202C30002077
:10D23000602B0020374402006B30002008B507F057
:10D24000F6F8021C531E9A41014BD2B21A7008BD67
:10D250006B300020002803D0024B1860002000E053
:10D260000E2070475C2B0020002803D0024B186072
:10D27000002000E00E207047582B002008B5074B17
:10D280001B68002B07D09847002806D000210A1CF5
:10D2900000F0FEF801E0FFF757FF08BD602B00200B
:10D2A000F0B5041C8DB001F0C9F9201C07F090FA0C
:10D2B000208810380B2800D991E004F0BFFC063A12
:10D2C00090909056909090609069A688277DFFF787
:10D2D000EFFB311C06F0BFFEFFF7EAFB051C2B1C21
:10D2E000607B5833019018780222A179104318709E
:10D2F0006B46D976222001991E839F766844231CB1
:10D3000001701633E11D062207A80B9308F0F4F90B
:10D310006846211C23300E310622903508F0ECF9C6
:10D320002D68002D5BD0281CEA6806A990472D695E
:10D33000F7E7A688FFF7BCFB2C4906F08CFEA57921
:10D34000FFF7B6FB031C58331A7802218A431A7080
:10D3500098306B469D7605681E83002D3FD0281CB3
:10D36000EA6806A990472D69F7E700F057FD436981
:10D37000A288A11D002B32D0101C98472FE0FFF788
:10D3800097FB036EA279002B29D0101C984726E04A
:10D39000FFF78EFBA37B051C5A07910F6846DA083E
:10D3A000677BDE0701720274E11D062206A808F001
:10D3B000A3F9F60F6B46197A9F77DE7721221B7C43
:10D3C0006A441370231C08A80F3301700993783541
:10D3D000281CEA6806A990472D69002DF8D1FFF7AF
:10D3E0004DFE211C06F004FF0DB0F0BDFFFF000054
:10D3F0001FB5A3238022DB00D205D3580D20DA0706
:10D4000000D508201C4948221C4BFFF7F3FE0028DA
:10D410000AD080B2002807D1BFF34F8F184A194BAA
:10D42000DA60BFF34F8FFEE7002302A80293436048
:10D430000123037007F009F8002801D0072417E042
:10D44000684607F000F80028F8D1694606F0F9FFB1
:10D450000028F3D10C48FFF7FDFE84B2002C07D161
:10D460000A48FFF701FF84B2002C01D100F0AEFCA6
:10D47000201C04B010BDC046642B0020B1D40100B4
:10D480000400FA0500ED00E0A1D201004F440200C3
:10D4900080B2002807D1BFF34F8F034A034BDA60F5
:10D4A000BFF34F8FFEE770470400FA0500ED00E080
:10D4B00030B51025ADB02A1C03A8002108F025F9CD
:10D4C000114B00240093114B211C0193104B2A1C7B
:10D4D0000AA802930894099408F017F90D4B0E4915
:10D4E000221C079307A86B460E91FEF7BFFF07A902
:10D4F00017A801F0BFFF07A8FEF7DEFE17A807F088
:10D50000A7FE201C2DB030BD205B020049D10100D8
:10D510002F3B0200085B0200D05D020008B5054BFE
:10D5200001201A7850401870034B1B68002B00D064
:10D53000984708BD6C300020AC2B002038B50C4B50
:10D54000051C15200C1C1A6006F088FF00280ED15F
:10D550001520291C06F084FF002808D1152006F0AC
:10D560007BFF002803D10320211C06F07BFF38BD80
:10D57000AC2B002037B5094B021C1978142041430D
:10D580005C18E068217905016369201CE4880C308F
:10D590000094034C2C59A04737BDC046B02B002047
:10D5A000DC2B0020F7B5634C00932378061C0F1C7E
:10D5B000151C002B06D1009B134301D1022300E070
:10D5C0000123237023780320013B052B00D9B0E011
:10D5D000181C04F033FB032334557E91564A8023F4
:10D5E00051695B05013105D05069196989B204F0B0
:10D5F0002FFB00E0586980235B051D6919691A69D2
:10D600000138ABB289B292B258437943920806F01E
:10D610002BFF0223002800D18AE08AE0381C06F0A4
:10D6200025FF002800D084E00323002D00D07FE0F8
:10D630000099002922D13378042B48D177E0802348
:10D640005B051A6992B257433B4A5169013105D0D3
:10D650005069196989B204F0FBFA00E05869802327
:10D660005B051969013889B241432A1C381C06F050
:10D67000FBFE00285DD1009A002A25D0042357E044
:10D6800080235B051A69718892B257432A4A7F1832
:10D6900001915169AD007F19013105D050691969B7
:10D6A00089B204F0D5FA00E0586980235B05196956
:10D6B000013889B24843019AAD182918009A381CDC
:10D6C00006F0D2FE002834D13378042B12D0052383
:10D6D0002EE080235B051869728880B24743AB0057
:10D6E000D8193169920806F0BFFE002821D1009BAD
:10D6F0001D431CD006231BE00F4A802351695B05A4
:10D70000013105D05069196989B204F0A1FA00E02D
:10D71000586980235B051A691969013893B2584327
:10D7200089B204F095FA06F0A1FE002801D1072382
:10D730002370FEBD6E30002000100010F8B5324E90
:10D74000142233785343F3181C1D1B79E568042B0E
:10D7500018D0052B39D00F20022B54D12B4B6288C7
:10D760001888236980021918A388121A5D19284B9A
:10D7700028189A4201D8920801E08022520006F04F
:10D7800073FE3CE0A26823491301CB18198958891C
:10D790005B6880277F05AB4203D141436388994290
:10D7A00001D0022A0AD13969281C89B204F050FA42
:10D7B000164B1B88C01806F059FE20E03969281C5A
:10D7C00089B204F045FA011C09E080277F05396918
:10D7D000281C89B204F03CFAA388011C5D193A693F
:10D7E0003B6992B2481C4A439BB243436088AA1AE1
:10D7F00045195B1B92089B08201CFFF7D3FE0028ED
:10D8000001D10123B370F8BDB02B002030300020CF
:10D81000FF030000DC2B0020F8B5134C061C6578D4
:10D8200006A807880420022D1DD020782D18EDB2FF
:10D83000012D01D9023DEDB21420454365196A61FD
:10D840002A1C2E710C3241C941C2EB802F81A37872
:10D85000002B01D0002003E0FFF770FF1128F9D062
:10D86000637801336370F8BDB02B002008B5084B16
:10D8700000205B78834209D0FFF760FF002805D0C5
:10D88000031C113B5A1E93415B42184008BDC04621
:10D89000B02B0020F0B53F4A87B09378141C002BC2
:10D8A00075D03D49002393700A78082A06D10228D2
:10D8B00001D10B7065E0394A137062E0022803D091
:10D8C000032864D10D2060E0217814204843344DB2
:10D8D0002018011D8C4629880079013189B20191F7
:10D8E000298002280AD18E02614649880296029F49
:10D8F000F517CE0F8F426E41059607E0052804D13B
:10D90000D51F6E427541059301E005931D1C042847
:10D910000BD1D31F5842434101986646810270885B
:10D92000814205DB51424A4103E000231A1C00E01A
:10D930000022002D07D1002B05D1002A03D1059F1D
:10D9400001231F421DD0144800250570281CFFF735
:10D9500011FE227814235343114EE31801201D7148
:10D96000DD80D8601D615D611D8135806378013B7C
:10D9700063701318DBB2834201D8237001E0013ACF
:10D980002270FFF773FF002801D0FFF7F3FD07B007
:10D99000F0BDC046B02B00206E3000206D3000205E
:10D9A0003030002038B5294B00221A80284B012145
:10D9B000D9601962274C28491A705A701A711A6175
:10D9C0001A765A629A70DA805A611A815A839A6278
:10D9D0009A830A8062691D1C80235B05013205D091
:10D9E0006069196989B204F033F900E0586980234D
:10D9F0005B051A69023892B25043184A0021106040
:10DA0000174A1160118191815181164A08211170C4
:10DA10006269013206D00F4A5069196989B204F06F
:10DA200017F900E0586980235B051A691969013804
:10DA300093B2584389B204F00BF906F017FD0028A1
:10DA400003D1094A0123AB70137038BD3030002078
:10DA5000B02B0020001000102E300020EC2B0020F6
:10DA6000DC2B00206E3000206D300020F0B5424BE2
:10DA700087B01B780F1C0824002B79D0002876D0A3
:10DA8000002974D004680494002C70D080235B05B6
:10DA90001A69858892B20724954269D80F2D67D9F3
:10DAA000C0880190002863D0041C6C43334A03945F
:10DAB0001268261C0292A418314A0594516901315A
:10DAC00005D05069196989B204F0C2F800E05869BC
:10DAD00080235B051A69013892B2504305990724E7
:10DAE000814245D81A69039992B2914207DD1869BB
:10DAF000291C80B204F0F0F889B2002938D1032043
:10DB000028400724002833D11E4A04241388944651
:10DB1000012B2DD0029C1C4A7C603B601C01029FA3
:10DB200011194F60049FA750019C0D814C8113492E
:10DB30000C680D1C802149050F690130BFB280B20D
:10DB4000BE4203D90F69BFB2F61B00E000260F6981
:10DB50000969BFB289B2E4198E42EBD21901521899
:10DB6000013367462C6090813B80002400E00E2446
:10DB7000201C07B0F0BDC0466D300020EC2B00200B
:10DB8000001000102E300020DC2B0020114B30B58F
:10DB90001C780823002C1AD0002815D0002A13D096
:10DBA0000368002B12D10C4C2568002D0ED025895E
:10DBB0004068694309186089454360682D18A94287
:10DBC00004D21360516002E00E2300E00723181C0A
:10DBD00030BDC0466D300020DC2B0020F0B5141C99
:10DBE0001C4A051C127885B00F1C0820002A2ED074
:10DBF00000292BD0002D29D029680720002926D103
:10DC0000154E3268002A22D06968039132897189E1
:10DC1000766851438C4603996644B14217D2002C72
:10DC200015D0944213D8E618964210DC0322102037
:10DC300017420CD113420AD1114208D10093291C7A
:10DC40003A1C231C0220FFF7E7FD00E00E2005B080
:10DC5000F0BDC0466D300020DC2B0020F0B5141C58
:10DC60001C4A051C127885B00F1C0820002A2ED0F3
:10DC700000292BD0002D29D029680720002926D182
:10DC8000154E3268002A22D0696803913289718961
:10DC9000766851438C4603996644B14217D2002CF2
:10DCA00015D0944213D8E618964210DC03221020B7
:10DCB00017420CD113420AD1114208D10093291CFA
:10DCC0003A1C231C0520FFF7A7FD00E00E2005B03D
:10DCD000F0BDC0466D300020DC2B0020F0B5161CD6
:10DCE000204A85B0127802900D1C0824002A36D0F4
:10DCF00000292FD000282DD00C68002C2CD11A4FD1
:10DD00003A68002A28D04A68788939894843844685
:10DD10007868844462451FD2002E1DD08E421BD8E5
:10DD2000F018884218DC02980321084216D10B42F1
:10DD300014D11140039111D19918321C07F0DCFC69
:10DD40002A6800961301FE58281C0321039A029B9F
:10DD5000B04704E00E2402E0072400E01024201C59
:10DD600005B0F0BD6D300020DC2B0020154B73B5E5
:10DD70001B78041C0D1C0820002B22D0002C1FD067
:10DD800022680720002A1CD10F4A1368002B18D0E4
:10DD900056681189528963684A439219934210D296
:10DDA00010209A070DD1981B03F096FF07200A1E3A
:10DDB00007D100912B1C211C0420FFF72DFD00E052
:10DDC0000E2076BD6D300020DC2B00201FB5002317
:10DDD00002AC039328232380C8235B006380E38085
:10DDE00001A811230C490522037006F047FB80B2FD
:10DDF00000280FD18020800006F03CFB80B2002874
:10DE000008D1201C06F038FB80B2002802D106F0B1
:10DE10002FFB80B204B010BDAC61020038B5084DD4
:10DE20002C68002C0AD1182003F0F4FE054B446046
:10DE30008460C4600461446103602860286838BD60
:10DE4000F02B0020005D020030B585B001AC63808E
:10DE5000089B0025E380099B2170101C211C657024
:10DE6000A580039306F02EFBA84208D0112805D008
:10DE7000044BC51868424541063500E00525281CBD
:10DE800005B030BDFCCFFFFFF7B501930368041C5C
:10DE90005B680E1C171C9847051C0620002D2CD112
:10DEA000019B089963631422E761201807F024FCA2
:10DEB000201C09991422203007F01EFC231C3D333E
:10DEC000A680013B5D700121301C1D7019712A1C58
:10DED00006F0F4FA061C281C002E0ED02368201C25
:10DEE0009B689847112E07D0044B9E4202D0062013
:10DEF000072E02D1042000E00520FEBD0230000004
:10DF0000304BF7B51D681F1C002D58D1B4204000C0
:10DF100003F080FE2C4B857508330360031C3033FF
:10DF200005851D70031DDD87284B041C0361031C40
:10DF30004C33011CA06410311D705D709D70DD704C
:10DF40001D71061C051C00915235B236281C00219B
:10DF500006F0E5FA0023AB82EB821835B542F5D125
:10DF60009A225200261CA218B43601920025301CB9
:10DF70000021202207F0C9FB301D291C06F0CFFA32
:10DF8000019B35767583B58320369E42EED19A2368
:10DF90005B00E5500099231CA622FC335200DD6390
:10DFA0001D645D649D647161A550A6225200A21893
:10DFB0005D659D65DD651D663C6051619D663868E7
:10DFC000FEBDC046F42B0020385D0200285D020033
:10DFD000F0B58BB06C460E23E382039001914B7831
:10DFE0000C225343244A1634D318188906A9221C3C
:10DFF000032306F0DBFA00283BD1019B18275B784E
:10E000001E4D5F4300933B1C26880833EB18181CF9
:10E0100006A9321C029307F060FB2C1C00280DD1CE
:10E02000009A0C235343144AD318997A02231940B7
:10E030001FD1E819182207F068FB1AE0ED196B6888
:10E04000002B01D00E4F00E00E4F009B18256B43B4
:10E050000322E250E3185E6006A9321C029807F022
:10E060004BFB019B039859782A1C6943382361189C
:10E07000B84700200BB0F0BD323000204C2C0020FF
:10E080005DDC0100DDDB0100F7B5041C0F1C6A46F6
:10E0900081782248FFF77AFD00283DD162780C2173
:10E0A0004A431F4B9A18927A530605D4022F03D085
:10E0B000012F03D11B4D02E01B4D00E01B4DA17849
:10E0C0001C2671431A4B68465918321C0023A84776
:10E0D000002813D1022F1FD063780C225343104A1B
:10E0E0004021D3189A7A68468A439A726178114B14
:10E0F0007143321C5918331CA84701E0022F0BD082
:10E1000023780C2253430C4A6846D3189A7A0B4B57
:10E110009200D358211C9847F7BDC046742C0020AC
:10E1200032300020DDDB01005DDC0100B145020082
:10E13000F82B0020302C0020642C0020F85D020019
:10E14000F7B50190437818215943264A264F5018B5
:10E150004468002C0FD00C2058433818807A45B200
:10E16000002D07DA450605D40E1C0836A5B296190F
:10E170008C5802E00024251C261C0C225343FB185B
:10E180001889311C2A1C231C06F00EFA0B280BD10F
:10E19000019A311C53780C225343FB1818892A1C0E
:10E1A000012306F001FA0124002800D00F48012CB9
:10E1B00017D1019D0C216B780D4A4B43FB18188930
:10E1C00006F0F0F900280CD00A4B984208D0082835
:10E1D00006D0094B984203D0112801D0002000E05E
:10E1E0000248FEBD4C2C002032300020418000004F
:10E1F000FFFF0000023000000430000070B5031C77
:10E20000487818246043094D0E1C2818191C221C3C
:10E210003823FFF763FD002806D173785C432D197E
:10E220006B68013300D1686070BDC0464C2C002083
:10E23000F0B51D1C434B161C1A6893B001900F1CBF
:10E24000002A7CD01898542879D803ABFF220024E8
:10E2500069465A709A70DA701C700C760B950A90A9
:10E26000A1B2394804AAFFF791FC002809D101980E
:10E2700004A9082207F031FA002802D103AB9C70F0
:10E2800002E00134022CEBD103ACA278FF2A56D075
:10E29000042F0AD1189A06AB542A01D1202200E09B
:10E2A00040221A701A7803213BE0284BEB1A372BD7
:10E2B00011D8274B002E04D1012118689140084243
:10E2C0003DD0012191400A1C196891431960202218
:10E2D00006AB1A7020E01F4BEB1A1B2B09D806ABBC
:10E2E00020221A70002363700CAB0B9318230A933F
:10E2F00012E019482D1A172D21D830236A461376BB
:10E30000002363700123E370144B997A02231940B0
:10E3100002D1182207F0F9F906AB032F0CD11A78B5
:10E3200001210A4307481A7009AB079306A903683D
:10E33000321C201C984702E01A780221F1E713B042
:10E34000F0BDC046642C0020742C0020F82B002067
:10E35000702C0020302C00204C2C0020323000206B
:10E3600070B51C2444430E4E051C3019002134198D
:10E370000622113007F0C9F9201C0021102207F0F5
:10E38000C4F9FF232374A37601235B422383012274
:10E39000044BAA40151C1A68AA431A6070BDC046F7
:10E3A000F82B0020702C002037B581B2051C6A467E
:10E3B0000748FFF7EBFB041E08D168465421FFF71E
:10E3C000D5FC041E02D1281CFFF7CAFF201C3EBD4D
:10E3D000742C0020F0B5061C85B0002857D02D4BBA
:10E3E0002D48012500246F421C605C729C72211C28
:10E3F0000781C7720722857207F087F9211C18224E
:10E40000264807F082F9201CFFF7AAFF244CFF23BF
:10E41000281C2370FFF7A4FF6A465423677093807B
:10E42000204C0223D380204B6846211C0093FFF729
:10E430001DFB271C00282BD11C4A33781570151C96
:10E44000002B1BD11C1CA1B2381C02AAFFF79EFB9B
:10E45000061E0CD11C22131C6343154802A9C018C8
:10E46000331CFFF73BFC002804D02E7010E0002383
:10E470002B700DE00134022C0AD0E4E76B46D988FA
:10E480009B88201C594389B2FFF770FC00E00948C3
:10E4900005B0F0BD642C0020323000204C2C002050
:10E4A0006F300020742C002031E201007130002018
:10E4B000F82B00200E800000F8B5174B071C1B78C6
:10E4C0000D1C002B22D0002822D0002920D00B6860
:10E4D000002B1DD0114C2668002E1BD1201C08C01B
:10E4E0000531052207F008F9207A2B7901218843AC
:10E4F0000222A3721043042398432072E07901435F
:10E500000A439A43E271301C3E7004E0044802E082
:10E51000044800E00448F8BD71300020642C00205D
:10E52000088000000E80000004800000154B1B785E
:10E53000002B22D000281ED000291CD00378002BED
:10E540001BD1114B1B68002B17D04278002A16D123
:10E550000E4B9B7A012B12D02420184003D00123AC
:10E560000B70101C0CE05BB2002B02DA02230B7064
:10E5700006E0087004E0064802E0064800E00648AD
:10E580007047C04671300020642C002032300020DB
:10E590000E8000000880000010800000104B10B5B5
:10E5A0001B78002B19D0002815D00078002814D132
:10E5B0000C4B1B68002B10D00B4B9A7E1C1CFF2AA7
:10E5C00001D0FFF7F1FE36342378FF2B06D001206F
:10E5D000FFF7EAFE02E0054800E0054810BDC0462E
:10E5E00071300020642C0020F82B00200E800000E9
:10E5F0000880000013B5041C81786A460B48FFF7B9
:10E60000C5FA002810D160781C235843084A69468F
:10E6100010181A1CFFF762FB064B68469A7A064BE5
:10E620009200D358211C984713BDC046742C00207B
:10E63000302C0020642C0020085E0200F0B5C64A91
:10E640008FB01278FF23061C0393002A00D1B4E197
:10E65000C24A1168002900D1AFE104AD05AF6B706B
:10E66000AB70EB70031D7B602A233B810388002283
:10E670002A70BB4C102B22D0A17A82880191890785
:10E6800007D5B8498A4200D149E12189914200D198
:10E6900045E1172B00D1ACE007D8132B53D0142B36
:10E6A0002DD0112B00D088E10FE01C2B00D11CE1F4
:10E6B000522B00D111E1182B00D07EE1E5E0A37AC6
:10E6C00001210B4200D02FE177E101990223019A49
:10E6D0009943A172120707D54BB2002B0BDA281C05
:10E6E0000021FFF7D1FC06E0A878FF2803D0FFF750
:10E6F00037FEFF23AB701023A3721223F6E0E37AF8
:10E70000994FFF2B14D1F3893A8B9A4204D0BA8ED9
:10E710009A420DD1012300E00023019908220393BE
:10E720000A43DBB2E372A272281CAB70FFF762FFF0
:10E73000E37A0021FF2B00D08C49B0883A1C0023DB
:10E7400005F02EFF39E1019A3B7004231343A372B5
:10E75000E37AFF2B25D184498B7EFF2B06D00B1C3F
:10E7600036331B780127FF2B29D100E000272378BF
:10E770001C207843022B09D07B4AFD231018837696
:10E78000211C0722103006F0B7FF03E0764B181863
:10E79000FE23837603AB1F700399CBB2AB70E37299
:10E7A0000BE0734816230E22083000213B7006F060
:10E7B000ACFF019A44231343A372002400E06D4C84
:10E7C0000021674B0B91DB7A1C225343664A0D9163
:10E7D000D3180C93654B614A089309910A91B0884C
:10E7E000043208AB05F0DAFE002800D0E5E0221C78
:10E7F0007EE05A4901224B7A9343019A4B720423DB
:10E800009A431423A2723B70B379002B04D0E07AB0
:10E81000FFF7CAFDB2796BE0F379590767D5AB789A
:10E82000FF2B64D008210A43F17AA2728907C90F2D
:10E83000012906D11C225A434B488218907E8843F6
:10E840009076E27AFF2A52D02178474A1C26022984
:10E850000CD05E439619301C07221030211C06F0A4
:10E860004BFFB37E02229343B37609E073433F49E3
:10E87000D318498A1A1C19839B7E01218B439376F6
:10E88000281C0121FFF700FC31E0B379112B15D1D1
:10E89000019A120712D5364800210E22083006F0E0
:10E8A00034FF162301993B7060230B432B4AA3725C
:10E8B000537A2A49022213434B7218E0019A8023AB
:10E8C0005B421343A37215233B70244B281C9A7A96
:10E8D000294B9200D358984709E02049264B8A7A61
:10E8E000281C9200D358984767E013233B700022FE
:10E8F0001A4905AC0B68281C211C98472378122B59
:10E900005BD11748837A012B57D0012383725B4276
:10E910000381C3720021072206F0F7FE4DE0E27A80
:10E92000AA7000226A70B4E611233B706A70838873
:10E93000871D23810223A372201C391C072206F0A5
:10E94000DBFE737DDA071BD50C4A5B08D35CFF2B1B
:10E9500029D0039327E0C04671300020642C0020AA
:10E9600032300020FFFF0000F82B0020302C002068
:10E970004C2C002043800000E85D02006F30002036
:10E980000F4E391C301C1030072206F0A6FE00285E
:10E9900008D0301C2C30391C072206F09EFE0028BF
:10E9A000A5D101200390039A281CD3B20A22E37256
:10E9B000A272AB70FFF71EFE99E70FB0F0BDC04624
:10E9C000F82B002030B5002912D00A78002A11D186
:10E9D0000A4B1B68002B0DD0FF23094C8B70258937
:10E9E0000523854207D14A70E37A8B70131C02E03D
:10E9F000044B00E0044B181C30BDC046642C0020C2
:10EA0000323000200E80000008800000F0B5418AFE
:10EA1000037885B0041C01910126002B1CD08319BA
:10EA20000093214B00221D68AA4220D0112151439E
:10EA30001E4F0023C9198C46981E012805D961462E
:10EA4000CE5C0099C85C86420FD10133102BF3D104
:10EA500011235A43BF183E7C6B469E7303AB588804
:10EA600001990004084305B0F0BD0132DCE70098CD
:10EA700005F0BEFD2378071C061C002B01D11234C3
:10EA80000094042DE8D011246C43084B00991C1904
:10EA9000201C102206F030FE0023A370E370024B0E
:10EAA000013527741D60D7E77C2C002072300020D0
:10EAB00070B50B780C1C142B1BD002D8132B05D06F
:10EAC00053E0152B1FD0222B46D04EE04D68FFF7A8
:10EAD000A5F96368061C1888AB787468D9079A078B
:10EAE000C90FDB06C9B2D20F5B0F002C3DD0A04787
:10EAF0003BE0FFF793F963681A8899788368002BE5
:10EB000033D0101C26E04B689A7813091207120FB5
:10EB1000012A02D0022A08D010E0013BDBB2002516
:10EB2000022B0ED8124AD55C0BE0012B08D0023B19
:10EB30005A42534105255B421D4002E0002500E09A
:10EB40000425FFF76BF963681A88C368002B0CD0A3
:10EB5000101C291C984708E0FFF760F963681A88C1
:10EB60000369002B01D0101C9847002070BDC046DF
:10EB7000B2610200F0B51C1C2E4B87B001921A78CE
:10EB8000071C00200E1C824252D1FEF70BFF00280A
:10EB900048D1002C0FD0222003A9039405F093FE46
:10EBA000002808D0082804D01138474278410430A2
:10EBB0003EE006203CE000236A4602A81372FFF7FD
:10EBC00009FC011E2ED103AC0C22201C06F09DFD79
:10EBD0001022194BA271E271227A012503932A4374
:10EBE00002231A4304210A4361792E40A943227269
:10EBF0002F4072000E1C3E4323719E43019B07274A
:10EC000016433B401C229B0096431E430B48211C8D
:10EC10006671FFF751FC031E06D0042807D00620BA
:10EC2000082B05D00B2003E0024A157000E0381CC9
:10EC300007B0F0BDB7300020B1EA0100B6300020C7
:10EC400008B50848FFF7AAFC0023984207D004281B
:10EC500004D00623082802D00B2300E00723181C49
:10EC600008BDC046B630002073B500230193104B99
:10EC700001AD1B780E1C291C2B70FFF7A3FE041E90
:10EC800004D00B23052810D104230EE0281C311CCE
:10EC9000FFF74CFC231C002807D0042804D00623CF
:10ECA000082802D00B2300E00723181C76BDC046BD
:10ECB000B630002073B581800026041C3F300670FA
:10ECC00002250138857001AD0670081C291C2A80B8
:10ECD0006B8005F0FCFD051C301CB5420DD0201CDE
:10ECE00005F0F9FD112D07D0044B9D4202D00620FE
:10ECF000102D02D1042000E0052076BD0230000076
:10ED0000F0B5041C89B0221C403201921378012B0B
:10ED100064D1251C201C3C353D302B780278934271
:10ED200043D20021A71D03A805F0F9FB381C03A955
:10ED300005F022FA002809D12E78182171436118B4
:10ED40004231381C05F018FA00282BD0E369002B5B
:10ED500011D0002103A805F0E2FB201C203003A9FC
:10ED600005F00AFA002806D02B78182058432018FE
:10ED70004230E2699047019A1378012B0ED1636B00
:10ED8000002B0BD02B7818225343E31842339A8A76
:10ED9000A188DB8A201CFFF78DFFB4E72B780133B5
:10EDA0002B70B0E701362E70ADE7002A16D0002B8D
:10EDB00014D01822013B5343E3184233D98A084B3D
:10EDC000002202702A70994203D1201C05F0CBFB6F
:10EDD00004E0A08805F079FD0028F6D109B0F0BD67
:10EDE000FFFF000073B5051C2B686C69002B1CD05D
:10EDF000231C403303221A706E680F4904226846B0
:10EE000006F07AFC18237343E3184233998ADB8AAD
:10EE100001AA11805380A088694605F05AFD002898
:10EE200009D0281C05F063FDDEE740342378032B6E
:10EE300001D10123237073BD1461020073B5051C59
:10EE40002B686C69002B1BD06E681149231C05369A
:10EE50000422403376011A7089186846A61906F014
:10EE60004BFCF38B01AA138001335380A0886946C1
:10EE700005F02FFD002809D0281C05F04CFDDFE728
:10EE800040342378042B01D10223237073BDC04684
:10EE900014610200F0B5031C40331B7885B0041CDC
:10EEA000032B30D1324B0A689A4226D18A6800255A
:10EEB000531BDB7B69466B540135102DF8D1922230
:10EEC0005200A618301C05F012FD1823584340309C
:10EED00024180123A3702A1CE01C694606F00CFCD0
:10EEE0006B466A4602331B78033212781B021343C7
:10EEF000A382301CFFF776FF37E092235B00C01837
:10EF000005F0F5FC31E0042B2FD11A4B0A689A4228
:10EF100026D18A680025531B9B7C69466B540135BA
:10EF2000102DF8D19E225200A618301C05F0F3FCDB
:10EF30000530400124180123201C23722A1C694635
:10EF4000093006F0D9FB6B466A4602331B78033260
:10EF500012781B0213436383301CFFF76FFF04E03A
:10EF60009E235B00C01805F0D6FC05B0F0BDC0467E
:10EF70000100100001001300084B10B508330360B6
:10EF8000002343608360C360041C00F017F8044949
:10EF9000206105F091FE201C10BDC046605D02009E
:10EFA000754C020010B5044B041C0833036005F0D7
:10EFB0006EFE201C10BDC046605D02000048704718
:10EFC0002C5E020008B5024805F07FFE08BDC04671
:10EFD0002C5E020010B5041C05F059FE0023E3610D
:10EFE000014B236210BDC0462F3B0200014B036062
:10EFF0007047C046F05A020010B5034B041C036072
:10F0000006F05EFB201C10BDF05A020008B5054B4F
:10F010001B68002B04D1044809210B2200F08EFF4D
:10F0200008BDC0462C2E0020E030002008B500238B
:10F0300002280DDDC11E074A890088588B5098426E
:10F0400004D003685B689847031C01E001235B421E
:10F05000181C08BD882C002070B50C1C151C02283B
:10F0600010DC0F4B1B68002B01D1FFF7CFFF661997
:10F07000B44205D021780B4800F0E8FF0134F7E7EF
:10F08000281C0BE00338084B8000C058002803D030
:10F0900003681B68984701E00120404270BDC046EC
:10F0A0002C2E0020E0300020882C002010B50C1CF5
:10F0B00002280BDC0C4B1B68002B01D1FFF7A6FFCD
:10F0C0000A4806F008FA207001200BE00338084BCC
:10F0D0008000C058002803D003689B68984701E06F
:10F0E0000120404210BDC0462C2E0020E030002000
:10F0F000882C002008B5031C0020022B0BDD033BED
:10F1000005489B001858002803D003681B699847DE
:10F1100001E00120404208BD882C002008B4FFB562
:10F12000171CC369144A051C041C0191099E203553
:10F13000934202D09B68281C9847019B311CE361D5
:10F140007368201C63600C310C30102206F0D4FA76
:10F15000B668E369A660002F03D05B68281C391CE1
:10F1600003E00AA91B680391281C9847201C04B0DF
:10F17000F0BC08BC01B01847D05D020030B51025C6
:10F18000B1B02A1C07A8002106F0BFFA154B0024D5
:10F190000493154B211C0593144B2A1C0EA80693AF
:10F1A000029403940C940D9406F0AFFA104B221CB9
:10F1B0000B93104B0BA8129302AB009303AB01937C
:10F1C0000D4904ABFFF7AAFF0BA91BA800F052F9E9
:10F1D0001BA806F03DF80BA8FDF76EF800F024FA26
:10F1E00031B030BD985D0200F9C30100F34D02005B
:10F1F000085B0200D05D0200345E0200064B10B5D1
:10F200000833041C03601C3000F014FB034B201C6B
:10F21000E363236210BDC046A85D0200F05A0200FD
:10F22000F8B51C4B061C083308C6041C0F1C301C08
:10F230000021182206F069FA174B0025201C291C12
:10F24000E56123626562A56210222C3006F05DFA4A
:10F25000124B201C2362124B291CA3620E4B6562C9
:10F26000E363256465641022483006F04EFA0B4BC8
:10F27000201CE3630A4B391C25646364094A231C80
:10F280001C3000F0A7FA301C391C05F00BFE201CC6
:10F29000F8BDC046A85D0200F05A0200205B0200E3
:10F2A0002F3B02003B4E020038B5051C0C1C1C35E0
:10F2B000002906D0074A416201218262281C0A1CEB
:10F2C00005E0203004F04DFC281C0121221C00F038
:10F2D000B9FA38BD2F3B020037B5124C2368002B1A
:10F2E0001DD1142002F096FC051C05F0BEFF256020
:10F2F000002D04D10C4891210C4A06F040F803235C
:10F300000422009301922068111C4C2305F0E3FFB6
:10F31000002804D104489421054A06F030F82068FA
:10F320003EBDC046882D0020B56102000B62020080
:10F3300037620200F8B5134B071C0D1C0C37002177
:10F340001026041C321C036041608160381C06F0EA
:10F35000DCF90D4B291C23600C4B321CE3616B68FC
:10F36000381C63600C3106F0C7F9AB68291CA36038
:10F37000EB69201CE361203020315B689847201C3A
:10F38000F8BDC046F05A0200085B0200D05D0200E2
:10F3900010B5041C02C0111CFFF7CCFF044B221C4B
:10F3A000636450320023A364E364201C137010BD17
:10F3B00066060000036A10B5041C002B04D1054842
:10F3C0008221054A05F0DBFF201C002105F0FBFD32
:10F3D000006810BD67620200C7620200021C38B5F7
:10F3E0002C320023041C0360E061436283621370CB
:10F3F000036205689D4206D0A6210E4849000E4AC8
:10F4000005F0BDFF14E00420011C06F015F80421EE
:10F410000323A060636021612B1CE160A161656131
:10F42000201C2A1C05F064FE20602368002BE3D01A
:10F43000201C38BDB5610200F062020038B50C4CEA
:10F440002368002B11D1042002F0E4FB051C05F019
:10F4500064FE256006F05CF823681D6806F064F819
:10F46000236868621B685A6A9A62206838BDC04681
:10F47000982D002070B590B0041C0E1CFFF7DEFF25
:10F48000084B311C1D686846FFF754FF291C6A466B
:10F49000201CFFF77DFF6846FCF70EFF201C10B014
:10F4A00070BDC046982D0020F0B55B4B041C186859
:10F4B000012293B0104204D148205849FF3008601F
:10F4C0001A60574B01221968114204D18020554916
:10F4D000C00108601A60261C00232C36337001938B
:10F4E0003378002B1BD106F01FF8051C684605F089
:10F4F0003EFD236A002B15D0201CFFF75BFF426CFA
:10F50000616AAB18026C8A4204D39A424CD3994286
:10F5100008D349E08B4205D2934203D944E0206AE4
:10F5200013B0F0BD236A002B0ED0201CFFF742FF62
:10F53000076C291C606A3A1C05F01DFD391C6062CD
:10F54000281C05F0F5FF02E0656205F0E5FF05F017
:10F55000EBFF0025A062684605F020FD002DBFD01E
:10F56000019B586C1A6C4108511AA162996C0029D0
:10F5700005D08A181A64201C01A905F0D9FD01994B
:10F580008A68002A02D04B68002B31D1019DAF6CF4
:10F59000002FA5D1281CFCF78FFEFFF79DFE291C2C
:10F5A00005F066FE01979BE7236A0190002B16D0B9
:10F5B00002A805F0DCFC226A201C013A226200212C
:10F5C00005F00DFD201C05F024FD236A012B03D955
:10F5D000201C002105F031FD02A805F0DFFC019B95
:10F5E000606A1A6C291C05F0C6FC01256062B2E74E
:10F5F00002A8FFF79FFE05F097FF02A8FCF75CFE4C
:10F60000019B191C1A1C58680C3120329B689847C2
:10F6100005F08AFFBAE7C0468C2D0020902D00200F
:10F620009C2D0020942D002008B5FFF707FF034B09
:10F630001B681868FFF738FF08BDC046982D0020EA
:10F64000F0B593B0061C02A8171C1D1CFFF772FE34
:10F65000FFF742FE05F05CFE7F19041E04D10C4842
:10F660006F210C4A05F08BFE02A9201CFFF762FEF9
:10F67000189A276453006364A56402A80194FCF7F8
:10F680001BFE301C01A905F053FD019813B0F0BD1D
:10F69000B5610200236302000848026803210A439F
:10F6A00002600749074A084B9B1A03DD043BC85810
:10F6B000D050FBDC05488047054800472405004042
:10F6C00028640200002800208C280020651B02000E
:10F6D00041C20100FEE7FEE7FEE7FEE7FEE7FEE7C8
:10F6E00037B5A223A022D205DB00D358BE22019356
:10F6F000314B5200995800295CD0C12189005958DA
:10F70000002957DA00249C502C4BA500E85800280B
:10F710004DD02B4BE35C002B30D0019B0121E3400B
:10F720000B4212D0E0235B00E218A0239200DB051D
:10F73000D3589B039B0F032B07D0224B1B68E3403E
:10F740000B4202D0204B1B6817E0019A0123E240D4
:10F750001A4213D1E0225200A118A0228900D2053A
:10F760008A589203920F032A08D1184A1268E2407D
:10F770001A4203D0144B02211B689847A023DB05D3
:10F78000EA18E023DB00C021D058890208420ED0DD
:10F79000D5580F482840D0500198E040C50701D502
:10F7A000D05802E08021D05889020143D150013461
:10F7B0001F2CA9D137BDC04600600040A42D0020F9
:10F7C000B8300020202E0020A02D0020242E002064
:10F7D000FFFFFCFF30B54C1C1DD0104C01602260B7
:10F7E0000F4CBE2252000020A0500E4A8D00AB509C
:10F7F0000D4B01225A54C122802392001B06A350B4
:10F800000A4B0B499C582140C024240421439950A1
:10F8100040221A6000E0081C30BDC046A02D002028
:10F8200000600040A42D0020B830002000E100E07E
:10F83000FFFF00FF0268024B92000021D150704789
:10F84000A42D0020036870B5A024E40598000019D9
:10F85000E024E4000659204D354005511F4C012598
:10F86000002A0ED0A94204D1226899401143216098
:10F8700015E0022913D11A4A9D4011680D43156005
:10F880000DE0012904D1226899408A43226006E0F4
:10F89000022904D1124A9D401168A94311602168D0
:10F8A0000122D940114204D10D490968D9401142C1
:10F8B00011D0A222A021C905D2008A58DA40131C17
:10F8C000E022D2008158DC0701D5C02300E080236C
:10F8D0009B020B43835070BDFFFFFCFF202E0020D6
:10F8E000242E002002780D4B9200D218A223DB00B8
:10F8F00010B58020D45840032043D050002902D0B6
:10F90000D158074806E0D05806490140D150D05898
:10F91000802149020143D15010BDC0460060004023
:10F9200003000300FFFFFCFF114A00211165114A8B
:10F93000114B1188114A9950114A1178002904D0AD
:10F9400010490888A821C90058505178002903D0CF
:10F950000C4948880C4958509278002A04D0094A2A
:10F960009188A922D200995001221A607047C0469E
:10F97000FCA000407428002000A000404C050000BE
:10F98000D73000207628002044050000164B0022C6
:10F9900010B55A60904210D1144A012198509950E4
:10F9A000134A06219850A122D2009850A222D200D8
:10F9B0009950104A1188104A9950104A410051300C
:10F9C0008A5AFF3080001A50C2210D4A89005458CB
:10F9D0000C4820408024E403204350508021C9007B
:10F9E000116001221A6010BD00A00040FC0F000051
:10F9F00004050000742800204C0500007628002033
:10FA000000E100E0FFFF00FFE0235B0030B5A02233
:10FA1000C418D2050123A400A3501D1C0A4C854024
:10FA200015510A4A89008918094CA222D2008C502B
:10FA3000C046C046C0460B60064B000218438850C3
:10FA4000C046C046C04630BD0C0500000060004006
:10FA5000031F02000300030010B5002A02D0FFF7C5
:10FA600041FF17E002780C4B9200D218A223DB0072
:10FA7000D4580A482040D050002902D0D158084814
:10FA800006E0D05807490140D150D0588021890262
:10FA90000143D15010BDC04600600040FFFFEFFFA2
:10FAA00003000300FFFFFCFF2C4BF7B52C4C00229A
:10FAB0001A650123061C0D1C081C6360002102F05E
:10FAC00029F9002809D1FE21281C890502F036F900
:10FAD000002803D0FE25AD0500E00025214B347839
:10FAE00021491F886400615A381C019102F06EFEA2
:10FAF000011C281C02F0AAFB02F076F91B4B1A49E4
:10FB000082B2E2526252002A04D10121E152301C39
:10FB1000111C14E0BA4206D1013A301C0021E25215
:10FB2000FFF7E0FE0DE0019A002A01D0BA4208D1A9
:10FB3000019B301CDA1B57427A41D2B20121FFF7F8
:10FB40008BFF07498022C12312039B00CA50084A39
:10FB500080239B00CA5001230B60F7BDFCA000402E
:10FB600000A00040742800203E30002076280020AD
:10FB700008080000CB17104A9B0F00201065591889
:10FB80000E480F4B01225A6089100E4A814202D959
:10FB90000121494202E0042900D805211180802179
:10FBA000C12209039200995007498022920099507E
:10FBB00001221A607047C046FCA00040FFFF000011
:10FBC00000A00040742800200808000010B5041CA4
:10FBD000081C054902F03AFB02F0D8FD011C201C6C
:10FBE000FFF7C8FF10BDC04600247449F7B5041CD8
:10FBF0000E1C081C4D4900F037FA4D4BC5B2C0B27F
:10FC0000195C012200290FD05978002902D15A70BD
:10FC1000151C0AE09978002902D19A70022504E0A7
:10FC2000444805F044F800E01A54301C6670291C62
:10FC30002570FFF7E9FE40496A00D2B23F4BAF00A2
:10FC40007F18561C3D49D000C018B4463C4BF60006
:10FC50007618C750F7503B4BAF00FF18A223DB00CC
:10FC6000C7503948F050081CA021C900465801234C
:10FC700001961F1C6646B740BC461F1C97403A1CA5
:10FC80006646019F32433A434250002D02D1802202
:10FC9000D2059367281CFFF779FE201C2B49FFF73C
:10FCA00069FF257801222A4B2A4E954000211965CB
:10FCB000AE5B294B294F7A6001961E88301C02F0FA
:10FCC00085FD002102F0C2FA02F08EF8244B214992
:10FCD00082B2EA526A52002A04D10126EE52201C56
:10FCE000111C14E0B24206D1013A201C0021EA5254
:10FCF000FFF7F8FD0DE00199002901D0B14208D1CC
:10FD0000019B201C9A1B56427241D2B20121FFF77F
:10FD1000A3FE8022C12312039B00FA50114A8023C4
:10FD20009B00FA5001233B60F7BDC046405E0200D5
:10FD3000D7300020436302000060004000F0014023
:10FD40001405000040A100404CA10040204E0000DE
:10FD5000FCA000403E3000207428002000A000409D
:10FD600076280020080800000A490B4A88680B4BD7
:10FD7000002808D018680130186000208860022030
:10FD8000D2218140505006491B6852581806190A62
:10FD900010437047FC10014000100140DC3000208F
:10FDA00004050000F8B51D4CA368002B0AD01C4BBD
:10FDB00002211A6801321A600023A360194AD22373
:10FDC0008B40D150636C174D002B19D0164E3378F1
:10FDD000002B15D0154B1F6805F066FB3F1A002F4E
:10FDE0000EDC0E4B00215964D22280235B0292006C
:10FDF000AB503170C22189006B50AB50FFF7E2F875
:10FE0000A36C002B08D0054B00229A648021D223DA
:10FE1000044A89029B00D150F8BDC046FC10014045
:10FE2000DC30002000100140DB300020282E0020B4
:10FE300038B5124C2278002A1FD1114BA121C900DC
:10FE40005A500222D22191405A50C12191405A5019
:10FE50000C4AC421890055580B482840C0252D0262
:10FE6000284350508021C0208902400001251150B4
:10FE700011601D6005F005FB257038BDDA300020EB
:10FE80000010014000E100E0FF00FFFF074B1A787F
:10FE9000002A0AD0064A8021C2204902800011505F
:10FEA000D2208000115000221A707047DB300020F1
:10FEB00000100140024B00229A605A647047C0460D
:10FEC000FC10014001704B1C0AD001238B404360A1
:10FED000044BC360044B0361044B4361044B8360D8
:10FEE0007047C046080500500C0500501005005032
:10FEF00014050050962210B50123D200914203DC74
:10FF00009E210268C90212E00A4ADC00A458A142FC
:10FF100007D2013BDB00D21801685268064BCA5079
:10FF200007E00133112BEFD1802102684905024B14
:10FF3000D15010BDA85F020024050000F8B5284B81
:10FF4000284C0360A023DB050F1C161C01211A5945
:10FF5000B9400A431A5119598022D2000A431A5152
:10FF60001A590121B1408A431A5119591E4A051CD8
:10FF70000A4096211A518901FFF7BCFF2B681B49E3
:10FF800000225A50A021C900042058500121996034
:10FF90001960191CFC31CA6015495A506A60A122C7
:10FFA0000A21D2009950134A08219F50A222D20060
:10FFB00099501E517B1C03D0381C032105F098FA80
:10FFC000711C03D0301C032105F092FA0A4B012268
:10FFD0001A60291C0822094805F08EFBF8BDC046AE
:10FFE0000020004014050000FFFEFFFF6C0500002C
:10FFF0001C0500000C0500002C2E0020E030002025
:020000022000DC
:1000000008B50E4AC1239B00D158080603D50C49F8
:10001000096A002908D1D3585A070DD5084B002189
:10002000DB68002B01D107E00121064B186800288E
:1000300002D0054B1B68984708BDC0460020004011
:10004000FC200040302E0020342E002003681A1CB3
:10005000FC32106A0128FAD100201062014AC9B2AC
:10006000995070471C05000010B5041C431C07D0B4
:1000700005F085FA041C431C02D1024804F017FE67
:10008000201C10BDA763020008B580230122DB05F8
:10009000DA67044B10211A690A431A6105F07BFAEA
:1000A00008BDC04600ED00E0014B024AD058704741
:1000B000440500000010014007B5094B094A01A89A
:1000C00099508022D221920289005A50C121890080
:1000D0005A50FFF7D9FF01A805F05FFA07BDC046E7
:1000E000001001404405000008B5031E04D1081C9F
:1000F000111C05F05BFA0FE001208243101C0AD1AD
:10010000064A12689A4207D9054A934204D3181C3A
:1001100005F092FA00E0002008BDC0466C280020DF
:10012000EC30002008B5054B1B68834204D9044B12
:10013000984201D301F0ECFA08BDC0466C280020BB
:10014000EC300020F7B54D6801248B18254200D013
:10015000A6E003260F68B446354200D1EFE10569F9
:10016000C91BD2190095A94249D34669B14200D1B1
:100170008BE0FE081F2E22D8F700BC462827BC447F
:100180008D688444CC68654505D0009FBD4236D358
:10019000EF688F4233D1AC4206D10124271C04689A
:1001A000B740BC4304607BE0644505D0009EB44288
:1001B00025D3A7688F4222D1EC60A56070E0CC689F
:1001C0008D698C421DD08F68009EB74217D3FE68A0
:1001D0008E4214D1A6688E4211D1FC60A760002D1A
:1001E0005ED0CF69BC46BF00C719FC377E6BB142F9
:1001F0002FD17C63002C24D00669B44235D205F09F
:1002000065FA4C690F1C1437002C0DD10C69043FA2
:10021000002C09D1E3E710263619B4462669019669
:10022000002E08D067463C6814263619B446666925
:10023000002EF7D1EFE7009EB742E0D3019E3E606B
:10024000CDE70124261C67464468BE40B4434460A1
:1002500026E00669B542D2D32F698F4201D12C61C5
:1002600000E06C61002CC7D11AE0A5610D69002D7A
:1002700003D0B542C3D32561AC614D69002D0FD0C9
:10028000B542BCD36561AC610AE05D6866462E404C
:10029000032E05D1A543144382605D604C6022E0CB
:1002A00004690094A342AAD35C680225254000D0CB
:1002B000B6E087694669BB420CD1C3688161D21838
:1002C0000123C2601A434A60B14200D037E1456160
:1002D000856034E1B34208D18468012312191343C5
:1002E000826041614B608A5029E10725AC431219B5
:1002F000E6081F2E26D8F700BC462827BC449D6878
:100300008444DC68654507D0009FBD4200D276E793
:10031000EF689F4200D072E7AC4206D10124036827
:10032000271CB740BB43036071E0644507D0009EC3
:10033000B44200D263E7A7689F4200D05FE7EC6059
:10034000A56064E0DC689D699C4209D09F68009EBE
:10035000B74200D253E7FE689E4200D1E8E04EE784
:100360005C691F1C1437002C0DD11C69043F002C44
:1003700009D115E010263619B44626690196002EDB
:1003800008D067463C6814263619B4466669002EC4
:10039000F7D1EFE7009EB74200D230E7019E3E6002
:1003A000002D34D0DF69BC46BF00C719FC377E6B17
:1003B000B3420ED17C63002C03D00669B44215D23F
:1003C0001DE701231E1C67464368BE40B3434360DC
:1003D0001DE00669B54200D211E72F699F4201D1A5
:1003E0002C6100E06C61002CE7D110E0A5611D6973
:1003F000002D04D0B54200D201E72561AC615B69F4
:10040000002B04D0B34200D2F9E663619C61012362
:1004100013434B6043698A50994207D182608EE052
:100420000125AC4315435C604D608A50D4081F2CF5
:1004300016D8E300012502682833A540C3182C1CF8
:100440002A4203D1144304601A1C04E09A6800692C
:10045000824200D2D3E69960D1608A60CB606EE0C0
:10046000374D130A1F24AB4221D85F1EFF3F0824DB
:100470003F0C2740334D1C1CBC4066190423360C2E
:100480001E40314BB440E5182D0C02231D40231CA7
:10049000AB40BE197519DB0B5B1B1C1C1534151CFE
:1004A000E5402C1C0E3301252C40AB40E4180127FD
:1004B00046680025231CA740CC614D610D614C337B
:1004C0003E4205D19B003E4346601950C3181CE0D4
:1004D0009B001B581F2C02D0640819252D1B141CCF
:1004E000AC405E680725AE43964212D0E50F043556
:1004F000AD00EE586400002E01D0331CF1E7006916
:100500005A19904200D97AE6E9508B61C960896036
:1005100015E000699A68834200D270E6824200D2F8
:100520006DE6D1609960CB6000238A608B6106E044
:10053000A6689E4200D062E6FC60A76030E7F7BD87
:10054000FFFF000000F0FFFF00C0FFFF0E4B82B076
:100550001A68002A15D1402199608021490159600B
:1005600001214942D96019610848DE214900425001
:1005700007495A6101AA4A4007218A4308210A43D0
:100580001A60012002B0704710300020382E002081
:1005900055555555F0B5041C40680D1C021C844689
:1005A000A3480721066987B08A43A3180396B4427B
:1005B00030D361460327394001292BD09C4229D2F0
:1005C0005F680126374225D0002925D0AA4233D2C0
:1005D00081698B4243D041698B4252D0BE0700D51E
:1005E0001AE107208743BA180492AA4200D213E105
:1005F000521B0592FF081F2F00D984E08C4EF80093
:10060000283099683018DA680290814266D00398E1
:10061000814260D205F05AF8FF2D0BD92B1D9A426A
:1006200008D3844B551B9B685B00AB424941494250
:100630000C40FAE00C1CF8E0521B0F2A00D8F4E042
:100640006346334002273B4361191D430323134391
:1006500065604B608B185D682E435E60D9E0C368AF
:10066000D218AA4200D8D7E0614631400227521B77
:100670003943631916430D4365605E608361C26050
:10068000D3E08368D218AA4200D2C5E0531B0F2BD7
:1006900013D967196246F9180497324002273A4382
:1006A00015436560049A351C1D4355604D680B6009
:1006B000B5434D6083604261B7E065463540022333
:1006C0002B4313436360A21853681E4300235660F4
:1006D00083604361A9E0C86898429BD18A4206D1F1
:1006E0000123BB401F1C3368BB43336070E0029E94
:1006F000B24205D0039FBA428CD39068984289D108
:10070000CA60916064E0DA6899699A4208D0986892
:10071000039EB04200D27DE7C7689F427ED079E752
:100720005A69181C1430002A0AD11A690438002AA0
:1007300006D110E01769043E002F07D03268301C44
:100740005769161C1436002FF8D1F3E7039EB04208
:1007500000D25FE7076000293AD0DF6934483E1CC9
:100760004C36B6000296365803970196019F061C38
:10077000BB420FD1029F3A50002A03D03069824217
:1007800015D247E7012303991F1C43688F40BB43E1
:1007900043601DE00769B94200D23BE7086998420F
:1007A00001D10A6100E04A61002AE7D110E09161BD
:1007B0001969002904D0814200D22BE711618A61B6
:1007C0005B69002B04D0834200D223E753619A6116
:1007D000059A01230F2A0BD86268049D1A40022152
:1007E0000A432A43626062195668334353601CE02F
:1007F00062461A4002200243059F611915430322F5
:100800003A4365604A60CA19506803430848536018
:100810003A1CFFF797FC08E0002406E096689E4229
:1008200000D0F7E6C260906095E7201C07B0F0BDED
:10083000382E00201030002010B5041C0834072288
:100840000023144201D063421340C018C91A012288
:10085000054B0A43D96098614118426028224A60DA
:10086000024A1269DA6110BD382E002010300020D3
:10087000031C0748C130FF300268934203D341682C
:100880005218934202D380680028F5D17047C046C1
:10089000382E0020F0B5C54A89B0F42800D987E188
:1008A000102404940A2803D90B300723984304909A
:1008B0001668049D311CEB08D94005968F0728D097
:1008C00001252C1C8C43E418E1002831511888685C
:1008D0008368994204D1A540331CAB4313600DE0FB
:1008E0001269934208D3DA68824205D1D9608B60DD
:1008F00004E01269934247D204F0E8FEE4000323C7
:10090000234343600419656801232B43636000F0AF
:1009100034FD9668049F0696B74200D819E3002973
:1009200064D00124201C9840A0404742994038439D
:100930000B1C034059420B40013B180B102108408F
:10094000C3405F0908210F40FB4038189E081F1C58
:1009500004231E40F74002237908194080193E1CE9
:10096000CE40730840182340311CC518D9406D187B
:10097000E90028315118886883689942B9D1059BEC
:10098000AC40A343136004E0DA688242B4D1D9607A
:100990008B60049C0323EA00234301274360121B5E
:1009A0003B1C069D061913437360B2507F4B002D0C
:1009B00018D0ED08AC46EC001D6828340495654657
:1009C000AF40049D59691C193D4203D13D431D6050
:1009D000251C03E0A5681F69BD428DD3A160E960B5
:1009E0008D60CC609A605E6100F0C7FC5068079033
:1009F000002800D1ADE246420640013E300B1023F4
:100A00001840C640750908231D40EE400423B40871
:100A10001C402818351CE5406908022319400019BC
:100A20002C1CCC40A3074018DB0F211CD940C31855
:100A30005B184C339B00D158049C4A6807239A43A7
:100A4000121B0D1C0B69002B0CD05E680721049F44
:100A50008E43F11B914201D3111C00E01D1C0A1CA6
:100A6000191CEFE74B69002BEFD1504B1C69A542D5
:100A700000D241E7049E7619B446B54200D33BE765
:100A8000EB68A969AB4209D0A868A04200D233E75D
:100A9000C768AF4201D100F078FC2DE76B69281CD4
:100AA0001430002B0AD12B690438002B06D10FE03B
:100AB0001F69043E002F07D03368301C5F691E1C7D
:100AC0001436002FF8D1F3E7A04200D214E70760F4
:100AD000002936D0E8690290029F34484C37BF00A5
:100AE0003E58041CB5420ED13B50002B03D0206968
:100AF000834215D200E70123029F1E1C079BBE40C4
:100B0000B34343601DE00069814200D2F4E60E6900
:100B1000AE4201D10B6100E04B61002BE7D110E048
:100B200099612969002904D0814200D2E4E6196163
:100B30008B616969002904D0814200D2DCE65961E9
:100B40008B6103230F2A09D8049FD2191343AA18D3
:100B500050686B6001230343536025E0049C069FAB
:100B6000234301246B60231C134366467360B25019
:100B70000E4B002F15D0FE08F000B440059E283023
:100B800059691818264203D134431C60041C04E040
:100B900084681F69BC4200D2AEE68160E1608C606F
:100BA000C86060469A605861281CE6E3382E002031
:100BB000011C413100D9C9E107230B309843536828
:100BC00004900593002B00D1C3E1049C4042002116
:100BD0008446230A8B4225D0C9481F21834221D84D
:100BE0005D1EFF3D08212D0C0D401E1CC54FAE4063
:100BF000F4190423240C1C40C349A6407018000CAF
:100C000002210840331C83402C192018DB0B1B1ACF
:100C1000191C049C1531CC400120211C0E330140CD
:100C20008340C9180B1C4C339B00D358002B2BD08E
:100C30001F2903D0480819273F1A00E00027049D08
:100C40000024BD402F1C251C5E6807208643301CF5
:100C5000049E801B604503D284461D1C00284FD093
:100C6000FE0F58690436B600F358002802D09842A7
:100C700001D103E0201C002B02D0041C7F00E3E71D
:100C8000031E3DD1002D3BD10120071C8F40391C94
:100C900081404B420B4305990B401D1E30D05E42F4
:100CA00033405E1E340B10231C40E64075090823B8
:100CB0002B40DE400421B5080D401C19331CEB40CD
:100CC000641959081D1C02231940CD406B08641893
:100CD0000340291CD940E3185B184C339B00D358C0
:100CE00000250DE05C680721049E8C43A11B614533
:100CF00009D361461869002800D15869031C8C4645
:100D0000002BEFD101E01D1CF4E7002D00D120E104
:100D10009768049C3B1B9C4500D31AE11469A542CB
:100D200000D2E9E5049EAB199D4200D3E4E5EA68F0
:100D3000A969AA4208D0A868A04200D2DCE5C76829
:100D4000AF4200D12AE3D7E56A69281C1430002A93
:100D50000AD12A690438002A06D10FE01769043E37
:100D6000002F07D03268301C5769161C1436002F2C
:100D7000F8D1F3E7A04200D2BEE50760002936D0E3
:100D8000E8690690069E61484C36B6003758041C48
:100D9000BD420ED13250002A03D02069824215D2C2
:100DA000AAE501220699171C059A8F40BA434260B2
:100DB0001DE00669B14200D29EE50F69AF4201D144
:100DC0000A6100E04A61002AE7D110E091612969D7
:100DD000002904D0814200D28EE511618A616969DF
:100DE000002904D0814200D286E551618A616046C3
:100DF00003220F280AD804990B1C63441A43EB18EA
:100E00005C686A60012222435A6099E0049E0121D5
:100E100032436A6062460A4367465A60C608D85140
:100E20001F2E15D8394CF00027682830B140201803
:100E30000F4203D139432160021C04E0826821691A
:100E40008A4200D258E58360D3609A60D86077E028
:100E50002B483E0A1F2286421DD8741EFF3C0822E2
:100E6000240C1440274AA640B018000C042210405D
:100E7000254A8640B7183F0C02223A409640271870
:100E8000BF18F60BF71B3A1C15326446D4400E37D8
:100E900021407F00CA1901201C499040171C059071
:100EA0004C374E680797059F0024DA615C611C612E
:100EB0000696081C3E4209D1079A0598371C9600F1
:100EC000735007438E194F609E6128E0079FBE0054
:100ED00071581F2A02D052081924A41A6246A2404F
:100EE000141C4E680722964366451BD0E60F043655
:100EF000B60072586400002A0AD0111CF1E7C046FF
:100F0000FFFF000000F0FFFF00C0FFFF382E0020B1
:100F100000698A19904200D9EEE473509961DB6050
:100F20009B600DE000698A68814200D2E4E482425D
:100F300000D2E1E4D3608B609A600022D9609A61AC
:100F4000281C0830002800D0D3E302E001235B42D4
:100F50000493C64B049F99681E1C8F4219D8CA1B64
:100F600058690F2A09D9C11959619A60012313439D
:100F70004B6003238A503B43FEE100229A605A6192
:100F800003230B43436041184A68012313434B601A
:100F9000F3E1D968049C8C420AD29869091B0219B2
:100FA000D9609A6101231943032351602343E3E18C
:100FB000AF4B1A68002A01D1FFF7C8FAAC4F049C66
:100FC000BD682F1C2F376D42E3192B400693A342B7
:100FD00000D8D8E1DC235B00F358002B0AD0D822DC
:100FE0005200B158069C62188A4200D8CBE19A425E
:100FF00000D9C8E1DE235B00F358580751D4B0692B
:10100000002803D0FFF734FC041E2BD1002002F08F
:1010100023FD051C411C3ED0954C069F63685A1E5B
:10102000104204D082185B42391A1340CF18D823DB
:10103000049C5B00F158A7422DD98E4887422AD8DC
:10104000DC235B00F358002B04D07A188A4222D9A3
:101050009A4220D8381C02F0FFFC0590A84200D02C
:1010600029E339E0F16883487B1A049FDB192F1CC0
:101070001F4087420FD8381C02F0EEFC0CCCD3186E
:101080000590984200D016E3051C411C24D102E0D3
:10109000281C02F0E1FCDE235B00F55804222A4301
:1010A000F250069F7348874200D968E1069802F023
:1010B000D3FC051C002002F0CFFC6A1C00D15EE1CD
:1010C000431C00D15BE1854200D358E1049B471BE0
:1010D00028339F4200D852E1D8225200B4583B191D
:1010E000B350DA225200B058834200D9B350B469E9
:1010F000002C03D0E0214900731824E03369002B51
:1011000001D09D4200D23561E0235B00F550E2231F
:101110005B00E6225200F7500023B350544A126895
:101120007262012252423262DA002832B21801336E
:10113000D2609260202BF7D1391C2839281C13E08B
:101140009B68002B13D01A68596850188542F7D154
:10115000D86800070BD4944209D3AC4207D2C9190E
:101160005960F168201C7918FFF766FBF5E03369D8
:101170009D4200D23561E020400033181968EA1919
:10118000914203D09B68002BF8D104E0D868082274
:10119000024000D10AE1201CFFF76AFB0CC8D318FB
:1011A0001A1C191C0593273A07232F3900261A42C7
:1011B00001D056421E40231C8E19103302969E42C7
:1011C00000D20294391C2839281CFFF735FB274828
:1011D000E021029E49001B2384460A1C736062447E
:1011E0000836069607920BCA0BC612686346326031
:1011F000E02252009D50E22252009F50E622002140
:10120000520099500299E422520008319950029AF2
:101210001C320721059D02C29542FAD8029EA642C1
:1012200000D19AE0361BA11948680122904348601A
:10123000101C304360600E60F0081F281CD8C100ED
:101240001D68283182405918154203D12A431A607B
:101250000A1C05E08A681B699A4201D2FFF74CFB21
:101260008C60D460A260E16077E0C046382E002038
:1012700010300020FEFFFF7FCD48310A1F2381423E
:101280001FD84F1EFF3F08233F0C1F40C9480B1CAF
:10129000BB401D1804212D0C0D40C749AB40581808
:1012A000000C02210840191C81407D192818C90B27
:1012B000091A0B1C1533351CDD400E312A4049003C
:1012C0005318BE4A012199401D1C8C464C35576865
:1012D000002005956546E36160612061111C2F4285
:1012E00007D1059E2F43B500AC5055195760A56135
:1012F00020E0059FBD00AA581F2B02D05B081920D3
:10130000C01A331C8340181C556807239D43B542FF
:1013100013D0C50F0435AD00AB584000002B01D0F1
:101320001A1CF1E709695319994201D9FFF7E4FA48
:10133000AC50A261E460A4600FE0096993688A423E
:1013400001D2FFF7D9FA8B4201D2FFF7D5FADC6060
:101350009460A3600023E260A361984B049ED96867
:101360008E420CD29869891B8219D9609A61012337
:10137000194303235160334343600830B9E101F05E
:101380009DFE0C2303600020B3E19F68AF4201D0B3
:10139000FFF7B2FAC3609860FFF79AFB9468AC421B
:1013A00001D0FFF7A9FAC2609060E7E458681D60B9
:1013B000C719281C5F6008300723184201D0424239
:1013C0001A40081CAA180830072305920022184268
:1013D00001D042421A40049D8A180599059F4B1975
:1013E000501A0499401B032529437960A24207D172
:1013F000F16801224018F0601043B361586050E179
:101400007469A24208D1B568012240190243B06054
:1014100073615A60185044E151680D40012D00D0AD
:10142000A4E00724A1430491CD081F2D2AD8EF0082
:1014300028379468BF19D168BC46BC4209D03769C7
:10144000BC4201D2FFF758FAE768974201D0FFF794
:1014500053FAA14206D10121A9400D1C3168A943CC
:10146000316080E061450AD0544D2D69A94201D216
:10147000FFF742FA8D68954201D0FFF73DFAE1602F
:101480008C6070E0D168946991420BD0956837699F
:10149000BD4201D2FFF730FAEF68974200D102E176
:1014A000FFF72AFA5169151C143500290DD111696D
:1014B000043D002909D117E00F1C103706970F696A
:1014C000BC46002F08D0069D29680F1C14370697CC
:1014D0004F69002FF7D1EFE7384F3F69BD4201D286
:1014E000FFF70AFA67462F60002C3CD0D5690695B5
:1014F000069F324D4C37BF00BC467F59BA4210D1CF
:1015000067467951002905D02C4F3D69A94217D271
:10151000FFF7F2F9069C6F680121A1408F436F60CD
:1015200021E0264D2D69AC4201D2FFF7E5F927698C
:10153000974201D1216100E061610029E4D112E00C
:101540008C611469002C05D0AC4201D2FFF7D4F9AC
:101550000C61A1615469002C05D0AC4201D2FFF7A7
:10156000CBF94C61A16104995218401854680121CB
:101570008C4354600A1C02435A60C40818501F2C44
:101580001ED8E00035682830A14030180D4203D144
:1015900029433160021C05E0826831698A4201D228
:1015A000FFF7AAF98360D3609A60D86079E0C046FB
:1015B000FFFF000000F0FFFF00C0FFFF382E0020FB
:1015C0004D4D040A1F22AC421FD8671EFF3F082260
:1015D0003F0C1740221C494CBA401619360C042403
:1015E0002640474CB24015192D0C02242540141CEE
:1015F000AC40BE197519E40B641B221C1532051C86
:10160000D5400E34294064000A193E490124944013
:10161000161CA4464C364F68002504966646DA61CF
:101620005D611D610C1C374207D137434F60049F39
:10163000BE0073508E199E6120E004998E003159CE
:101640001F2A02D052081925AD1A021CAA40151CE7
:101650004E6807229643864213D0EE0F0436B6003A
:1016600072586D00002A01D0111CF1E720698A1917
:10167000904201D9FFF740F973509961DB609B609C
:101680000FE020698A68814201D2FFF735F9824272
:1016900001D2FFF731F9D3608B609A600022D960E4
:1016A0009A61059869E68F68974201D0FFF724F99F
:1016B000E9608D6018E7059C013400D1EBE4049BE0
:1016C00030339F4213D2104C0498A3680F491C1C5E
:1016D0002F342418E41B5B427D421C408C4206D808
:1016E000201C02F0B9F9013000D1D1E43F19059D69
:1016F000F2E409B0F0BDC046FFFF000000F0FFFFBC
:1017000000C0FFFF382E002010300020FEFFFF7FBA
:10171000F0B587B0002800D11CE2B34D08382A6923
:101720002B1C9446904200D205E2466803273740BE
:10173000012F00D1FFE10722311C914301244218FF
:10174000264200D0A6E00668002F00D102E2801BEE
:101750008919604500D2EEE16F69B84200D190E08E
:10176000F6081F2E25D8F70028378568DF19C468CA
:101770000597BD4206D0654500D2DCE1EF6887429F
:1017800000D0D8E1AC4207D1974C0125B5402E1CC2
:101790002568B54325607DE0059EB44206D06445CA
:1017A00000D2C8E1A768874200D0C4E1EC60A56020
:1017B00070E0C7688569874208D08468644500D2B4
:1017C000B9E1E668864200D1B7E1B4E17C693E1C2C
:1017D0001436002C0ED13C69043E002C0AD114E0D2
:1017E000271C1037029727690597002F09D0029F01
:1017F0003C683E1C271C143702976769002FF6D1FE
:10180000EEE7664500D296E13760002D42D0C6690A
:101810000596059F744E4C37BF00BC46BF59B84271
:101820000FD16746BC51002C04D06F4F3E69B442C3
:1018300015D280E1059D77680124AC40A74377600D
:1018400028E0694E3669B54200D274E12F698742BB
:1018500001D12C6100E06C61002CE6D11AE0A56199
:101860000569002D04D0B54200D264E12561AC6168
:101870004569002D0ED0B54200D25CE16561AC61D6
:1018800008E0566803273740032F03D1A643A96019
:10189000566022E0904200D34DE155680124254274
:1018A00000D148E102262E4000D0B9E09F69BA423B
:1018B0000CD1DA6898618918D96021435C6941606C
:1018C000A04200D046E15E619E6043E15E69B242A3
:1018D00007D19F685861C91999600C434460415011
:1018E00038E10724A5434919EE081F2E24D8F70034
:1018F00028379568FF18D468BC46BD4207D01F69D9
:10190000BD4200D217E1EF68974200D013E1AC422C
:1019100005D11A680125B540AA431A6077E06445ED
:1019200007D01E69B44200D205E1A768974200D0F3
:1019300001E1EC60A5606AE0D4689569944209D041
:1019400096681F69BE4200D2F5E0F768974200D161
:10195000FAE0F0E05469161C1436002C0DD114691D
:10196000043E002C09D115E0271C10370597276984
:10197000BC46002F08D0059E3468271C14370597F5
:101980006769002FF7D1EFE71F69BE4200D2D2E0AE
:1019900067463760002D3AD0D6690596059F124EEE
:1019A0004C37BF00BC46BF59BA420FD16746BC5145
:1019B000002C04D00C4F3E69B44217D2BBE0059C0A
:1019C00075680122A2409543756020E0064E366995
:1019D000B54200D2AFE02F69974201D12C6100E0FF
:1019E0006C61002CE6D112E0382E0020A56115694B
:1019F000002D04D0B54200D29DE02561AC61526952
:101A0000002A04D0B24200D295E0626194610122C2
:101A10000A4342605A694150904206D1996099E068
:101A2000A5430C43556044604150CC081F2C15D889
:101A3000E200012519682832A5409A182C1C294279
:101A400003D10C431C60111C03E091681B6999428F
:101A500071D39060C8608160C2607BE03E4D0A0A2D
:101A60001F24AA4221D8571EFF3F08243F0C2740BD
:101A70003A4D141CBC4066190422360C1640384AF4
:101A8000B440A5182D0C02221540221CAA40BE19F4
:101A90007519D20B521B141C15340D1CE5402C1C5F
:101AA0000E3201252C40AA40A41801275E680025AB
:101AB000221CA740C461456105614C323E4205D1FC
:101AC00092003E4398505E609A181BE092009A582C
